:020000040800F2
:1000000000000A20E9BA0008D9B70008E1B70008E3
:10001000E9B70008F1B70008F9B7000839BB0008D4
:1000200000000000000000000000000041EC01089A
:1000300001B800080000000091EE0108F9EE010887
:1000400039BB000839BB000839BB000839BB0008C0
:1000500039BB000839BB000839BB000839BB0008B0
:1000600039BB000839BB000839BB000839BB0008A0
:1000700039BB000839BB000839BB000839BB000890
:1000800039BB000839BB000839BB000839BB000880
:1000900039BB000839BB000839BB000839BB000870
:1000A00039BB000839BB000839BB000839BB000860
:1000B00039BB000839BB000839BB000839BB000850
:1000C00039BB000839BB000839BB000839BB000840
:1000D0000000000039BB000839BB000839BB00082C
:1000E00039BB000839BB000811B8000839BB00084B
:1000F00039BB00087177000839BB000839BB00081C
:1001000039BB000839BB000839BB000839BB0008FF
:1001100039BB000839BB000839BB000839BB0008EF
:1001200039BB000839BB000839BB00088D2700081F
:1001300039BB000839BB000839BB000839BB0008CF
:1001400039BB000839BB000839BB000839BB0008BF
:1001500039BB000839BB000839BB000839BB0008AF
:1001600039BB000839BB000839BB000839BB00089F
:1001700039BB000839BB000839BB000839BB00088F
:1001800039BB000839BB000839BB000839BB00087F
:1001900039BB000839BB000839BB000839BB00086F
:1001A00039BB000839BB000839BB000839BB00085F
:1001B00039BB000839BB000839BB000839BB00084F
:1001C00039BB000839BB000839BB000839BB00083F
:1001D00039BB000839BB000839BB000839BB00082F
:1001E00039BB000839BB000839BB000839BB00081F
:1001F00039BB000839BB000839BB000839BB00080F
:1002000039BB000839BB000839BB000800000000FA
:100210000000000039BB00080000000039BB0008E6
:1002200039BB000839BB000839BB000839BB0008DE
:1002300039BB000839BB000839BB000839BB0008CE
:0C02400039BB000839BB000839BB0008BE
:1002500010B5054C237833B9044B13B10448AFF300
:1002600000800123237010BD181900200000000039
:100270006069020808B5034B1BB103490348AFF39B
:10028000008008BD000000001C1900206069020801
:1002900010F8012B11F8013B012A28BF9A42F7D030
:1002A000D01A7047034613F8012B002AFBD1181A05
:1002B0000138704781F0004102E000BF83F0004345
:1002C00030B54FEA41044FEA430594EA050F08BFF1
:1002D00090EA020F1FBF54EA000C55EA020C7FEAB5
:1002E000645C7FEA655C00F0E2804FEA5454D4EB32
:1002F0005555B8BF6D420CDD2C4480EA020281EAFC
:10030000030382EA000083EA010180EA020281EA33
:100310000303362D88BF30BD11F0004F4FEA013185
:100320004FF4801C4CEA113102D0404261EB410194
:1003300013F0004F4FEA03334CEA133302D052421A
:1003400063EB430394EA050F00F0A780A4F10104D6
:10035000D5F1200E0DDB02FA0EFC22FA05F2801810
:1003600041F1000103FA0EF2801843FA05F35941F6
:100370000EE0A5F120050EF1200E012A03FA0EFC75
:1003800028BF4CF0020C43FA05F3C01851EBE3719F
:1003900001F0004507D54FF0000EDCF1000C7EEBBC
:1003A00000006EEB0101B1F5801F1BD3B1F5001FFA
:1003B0000CD349085FEA30004FEA3C0C04F1010419
:1003C0004FEA445212F5800F80F09A80BCF1004F42
:1003D00008BF5FEA500C50F1000041EB045141EAC4
:1003E000050130BD5FEA4C0C404141EB0101013C8D
:1003F00028BFB1F5801FE9D291F0000F04BF01467C
:100400000020B1FA81F308BF2033A3F10B03B3F14D
:1004100020020CDA0C3208DD02F1140CC2F10C02DD
:1004200001FA0CF021FA02F10CE002F11402D8BF3B
:10043000C2F1200C01FA02F120FA0CFCDCBF41EA07
:100440000C019040E41AA2BF01EB0451294330BDD6
:100450006FEA04041F3C1CDA0C340EDC04F11404B3
:10046000C4F1200220FA04F001FA02F340EA03008A
:1004700021FA04F345EA030130BDC4F10C04C4F1D0
:10048000200220FA02F001FA04F340EA03002946B0
:1004900030BD21FA04F0294630BD94F0000F83F4FA
:1004A000801306BF81F480110134013D4EE77FEADD
:1004B000645C18BF7FEA655C29D094EA050F08BF29
:1004C00090EA020F05D054EA000C04BF194610460A
:1004D00030BD91EA030F1EBF0021002030BD5FEA4E
:1004E000545C05D14000494128BF41F0004130BD76
:1004F00014F580043CBF01F5801130BD01F00045CA
:1005000045F0FE4141F470014FF0000030BD7FEA3C
:10051000645C1ABF194610467FEA655C1CBF0B4637
:10052000024650EA013406BF52EA033591EA030F4E
:1005300041F4002130BD00BF90F0000F04BF002146
:10054000704730B54FF4806404F132044FF0000579
:100550004FF0000150E700BF90F0000F04BF0021F2
:10056000704730B54FF4806404F1320410F0004558
:1005700048BF40424FF000013EE700BF42004FEA53
:10058000E2014FEA31014FEA02701FBF12F07F43D0
:1005900093F07F4F81F06051704732F07F4208BF87
:1005A000704793F07F4F04BF41F40021704730B58E
:1005B0004FF4607401F0004521F000411CE700BFDA
:1005C00050EA010208BF704730B54FF000050AE05D
:1005D00050EA010208BF704730B511F0004502D55E
:1005E000404261EB41014FF4806404F132045FEA60
:1005F000915C3FF4D8AE4FF003025FEADC0C18BF09
:1006000003325FEADC0C18BF033202EBDC02C2F1FA
:10061000200300FA03FC20FA02F001FA03FE40EA8C
:100620000E0021FA02F11444BDE600BF70B54FF090
:10063000FF0C4CF4E06C1CEA11541DBF1CEA13556E
:1006400094EA0C0F95EA0C0F00F0DEF82C4481EAD6
:10065000030621EA4C5123EA4C5350EA013518BFF6
:1006600052EA033541F4801143F4801338D0A0FBE3
:1006700002CE4FF00005E1FB02E506F00042E0FB90
:1006800003E54FF00006E1FB03569CF0000F18BF96
:100690004EF0010EA4F1FF04B6F5007F64F540743E
:1006A00004D25FEA4E0E6D4146EB060642EAC621D1
:1006B00041EA55514FEAC52040EA5E504FEACE2E3E
:1006C000B4F1FD0C88BFBCF5E06F1ED8BEF1004F41
:1006D00008BF5FEA500E50F1000041EB045170BDBD
:1006E00006F0004646EA010140EA020081EA030101
:1006F000B4EB5C04C2BFD4EB0C0541EA045170BDFD
:1007000041F480114FF0000E013C00F3AB8014F176
:10071000360FDEBF002001F0004170BDC4F10004BF
:10072000203C35DA0C341BDC04F11404C4F1200540
:1007300000FA05F320FA04F001FA05F240EA02009B
:1007400001F0004221F0004110EBD37021FA04F6D1
:1007500042EB06015EEA430E08BF20EAD37070BD8B
:10076000C4F10C04C4F1200500FA04F320FA05F0EA
:1007700001FA04F240EA020001F0004110EBD370EC
:1007800041F100015EEA430E08BF20EAD37070BD5C
:10079000C4F1200500FA05F24EEA020E20FA04F335
:1007A00001FA05F243EA020321FA04F001F00041E4
:1007B00021FA04F220EA020000EBD3705EEA430E55
:1007C00008BF20EAD37070BD94F0000F0FD101F084
:1007D0000046400041EB010111F4801F08BF013CBD
:1007E000F7D041EA060195F0000F18BF704703F0FB
:1007F0000046520043EB030313F4801F08BF013D82
:10080000F7D043EA0603704794EA0C0F0CEA13553D
:1008100018BF95EA0C0F0CD050EA410618BF52EAF7
:100820004306D1D181EA030101F000414FF00000FD
:1008300070BD50EA410606BF1046194652EA43060B
:1008400019D094EA0C0F02D150EA013613D195EA7F
:100850000C0F05D152EA03361CBF104619460AD1C7
:1008600081EA030101F0004141F0FE4141F47001D1
:100870004FF0000070BD41F0FE4141F4780170BDC1
:1008800070B54FF0FF0C4CF4E06C1CEA11541DBF26
:100890001CEA135594EA0C0F95EA0C0F00F0A7F828
:1008A000A4EB050481EA030E52EA03354FEA013155
:1008B00000F088804FEA03334FF0805545EA131368
:1008C00043EA12634FEA022245EA111545EA106530
:1008D0004FEA00260EF000419D4208BF964244F1C7
:1008E000FD0404F5407402D25B084FEA3202B61AE6
:1008F00065EB03055B084FEA32024FF480104FF4BA
:10090000002CB6EB020E75EB030E22BFB61A75462D
:1009100040EA0C005B084FEA3202B6EB020E75EBC0
:10092000030E22BFB61A754640EA5C005B084FEA28
:100930003202B6EB020E75EB030E22BFB61A7546F5
:1009400040EA9C005B084FEA3202B6EB020E75EB00
:10095000030E22BFB61A754640EADC0055EA060EC1
:1009600018D04FEA051545EA16754FEA06164FEA04
:10097000C30343EA52734FEAC2025FEA1C1CC0D1B0
:1009800011F4801F0BD141EA00014FF000004FF03D
:10099000004CB6E711F4801F04BF01430020B4F1FE
:1009A000FD0C88BFBCF5E06F3FF6AFAEB5EB030CB6
:1009B00004BFB6EB020C5FEA500C50F1000041EBB3
:1009C000045170BD0EF0004E4EEA113114EB5C0480
:1009D000C2BFD4EB0C0541EA045170BD41F4801153
:1009E0004FF0000E013C90E645EA060E8DE60CEA5B
:1009F000135594EA0C0F08BF95EA0C0F3FF43BAF78
:100A000094EA0C0F0AD150EA01347FF434AF95EA2E
:100A10000C0F7FF425AF104619462CE795EA0C0F12
:100A200006D152EA03353FF4FDAE1046194622E7DF
:100A300050EA410618BF52EA43067FF4C5AE50EAB9
:100A400041047FF40DAF52EA43057FF4EBAE12E7A9
:100A50004FF0FF3C06E000BF4FF0010C02E000BF8A
:100A60004FF0010C4DF804CD4FEA410C7FEA6C5C6D
:100A70004FEA430C18BF7FEA6C5C1BD001B050EA10
:100A8000410C0CBF52EA430C91EA030F02BF90EAFB
:100A9000020F0020704710F1000F91EA030F58BFBA
:100AA000994208BF90422CBFD8176FEAE37040F01C
:100AB000010070474FEA410C7FEA6C5C02D150EABA
:100AC000013C07D14FEA430C7FEA6C5CD6D152EA75
:100AD000033CD3D05DF8040B704700BF844610463A
:100AE00062468C461946634600E000BF01B5FFF739
:100AF000B7FF002848BF10F1000F01BD4DF808ED09
:100B0000FFF7F4FF0CBF012000205DF808FB00BFD9
:100B10004DF808EDFFF7EAFF34BF012000205DF833
:100B200008FB00BF4DF808EDFFF7E0FF94BF012080
:100B300000205DF808FB00BF4DF808EDFFF7CEFF81
:100B400094BF012000205DF808FB00BF4DF808EDC0
:100B5000FFF7C4FF34BF012000205DF808FB00BF91
:100B60004FEA410212F5001215D211D56FF47873D5
:100B7000B3EB625212D94FEAC12343F0004343EA78
:100B8000505311F0004F23FA02F018BF4042704753
:100B90004FF00000704750EA013005D111F00040DD
:100BA00008BF6FF0004070474FF00000704700BF73
:100BB0004FEA4102B2F1E04324BFB3F5001CDCF17F
:100BC000FE5C0DD901F0004C4FEAC0024CEA5070B7
:100BD000B2F1004F40EB830008BF20F001007047E6
:100BE00011F0804F21D113F13872BCBF01F00040E9
:100BF000704741F480114FEA5252C2F11802C2F11B
:100C0000200C10FA0CF320FA02F018BF40F001009B
:100C10004FEAC1234FEAD32303FA0CFC40EA0C004D
:100C200023FA02F34FEA4303CCE77FEA625307D18A
:100C300050EA01331EBF4FF0FE4040F440007047C1
:100C400001F0004040F0FE4040F40000704700BF5B
:100C500053B94AB9002908BF00281CBF4FF0FF3123
:100C60004FF0FF3000F07EB9ADF1080C6DE904CE15
:100C700000F006F8DDF804E0DDE9022304B0704777
:100C80002DE9F04F099D0C46002B4DD18A420F46AD
:100C900084469646B2FA82F360D94BB102FA03FE5B
:100CA000C3F120029F4000FA03FC20FA02F217432E
:100CB0004FEA1E461FFA8EF44FEA1C42B7FBF6F1CC
:100CC00006FB117701FB04F042EA0742904208D983
:100CD0001EEB020201F1FF3702D2904200F22D8199
:100CE0003946121A1FFA8CFCB2FBF6F006FB1022F2
:100CF00000FB04F44CEA024C644508D91EEB0C0CD2
:100D000000F1FF3202D2644500F21A81104640EA37
:100D10000140ACEB040C002125B12CFA03F30022B6
:100D2000C5E90032BDE8F08F8B4205D90DB1C5E9A8
:100D3000000100210846F5E7B3FA83F100294DD1FF
:100D4000A342C0F0F280904280F0EF800646234636
:100D50000846002DE6D0C5E90063E3E7002B40F02C
:100D6000A2808A1A4FEA1E471FFA8EF60121B2FBB3
:100D7000F7F407FB14204FEA1C4242EA004206FB4C
:100D800004F090420FD91EEB020204F1FF382CBF91
:100D90004FF001094FF00009904203D9B9F1000F5B
:100DA00000F0C8804446121A1FFA8CFCB2FBF7F020
:100DB00007FB102200FB06F64CEA024C664508D9F8
:100DC0001EEB0C0C00F1FF3202D2664500F2BB8034
:100DD0001046ACEB060C40EA04409DE7C1F120064A
:100DE0008B4004FA01FE22FA06F720FA06FCF440D2
:100DF0008A401F434EEA0C0300FA01FE4FEA1748EF
:100E00004FEA13491FFA87FCB4FBF8F008FB1044C3
:100E100049EA044400FB0CF9A1450ED93C1900F144
:100E2000FF3A2CBF4FF0010B4FF0000BA14503D947
:100E3000BBF1000F00F093805046A4EB09041FFAA9
:100E400083F9B4FBF8F308FB134403FB0CFC49EAF9
:100E50000444A44506D93C1903F1FF3801D2A44546
:100E60007AD8434643EA0040A4EB0C04A0FB029866
:100E70004445CC46434602D306D1CE4504D2013880
:100E8000B9EB020C68EB07035DB1BEEB0C0264EB3F
:100E9000030404FA06F622FA01F3CC401E43C5E926
:100EA000006400213EE702FA03FEC3F1200104FAC8
:100EB00003F200FA03FCCC404FEA1E4720FA01F18E
:100EC0001FFA8EF6B4FBF7F00A4307FB1044110C2F
:100ED00041EA044100FB06F48C420ED91EEB0101ED
:100EE00000F1FF382CBF4FF001094FF000098C4290
:100EF00002D9B9F1000F2CD04046091B92B2B1FBC8
:100F0000F7F407FB141142EA014204FB06F1914297
:100F100007D91EEB020204F1FF3801D2914215D825
:100F20004446521A44EA004121E7861A64EB03035F
:100F300001200EE7023C724435E702397244D0E6E4
:100F4000F4440238E3E6F444023842E7023C7244D7
:100F5000E7E702387144D0E7023B3C4482E70238BD
:100F60003C446AE7704700BF80B582B000AF78604C
:100F70007B680A2B03D10D21852020F0D5FA7B68F0
:100F8000DBB21946852020F0CFFA7B681846083777
:100F9000BD4680BD80B485B000AF78600023FB8182
:100FA00017E0FA89104913465B0013449B000B4479
:100FB0001B68002B0AD1FA890B4913465B001344C6
:100FC0009B000B447A681A60FB8907E0FB890133B8
:100FD000FB81FB890F2BE4D94FF6FF7318461437BA
:100FE000BD465DF8047B70473419002080B485B09D
:100FF00000AF78600023FB810FE0FA890C491346AB
:101000005B0013449B000B441B687A689A4201D131
:10101000FB8907E0FB890133FB81FB890F2BECD9AE
:101020004FF6FF7318461437BD465DF8047B7047D2
:101030003419002080B483B000AF786007497A6823
:1010400013465B0013449B000B4404331B78184683
:101050000C37BD465DF8047B704700BF3419002093
:1010600080B483B000AF78600B46FB7007497A68A4
:1010700013465B0013449B000B440433FA781A7048
:1010800000BF0C37BD465DF8047B70473419002063
:1010900080B586B000AF78600A23FB7500F03EFE95
:1010A00000F002FB00F064F900F01CFF00F050FDBE
:1010B000002001F087FD214800F066F9002005F0CE
:1010C000C3FD00F04DF800F03BF805F05BFE00F0CA
:1010D000CDFE07F10C0207F10B031146184600F094
:1010E000B9FD38613B69002B17D03B695B69FB6038
:1010F000FB6803F40073002B05D0FB6819463869C0
:1011000004F0C6FB09E0FB681946386905F020FDCC
:10111000FB681946386904F0BBFBFB7D013BFB759E
:10112000FB7D002B05D10A23FB7500F0C5F800F00C
:101130004DF90A201AF0F8FEC3E700BFD93C0008B9
:1011400080B483B000AF054B3B6000237B6000BFE1
:101150000C37BD465DF8047B704700BFF4190020D2
:1011600080B500AF01F002FF00BF80BD80B586B042
:1011700000AFF860B9607A603B600023FB750CE05B
:10118000FA7D454913461B019B1ADB000B441B6883
:10119000002B06D0FB7D0133FB75FB7D032BEFD9C4
:1011A00000E000BFFB7D042B01D1002370E03A4931
:1011B000FA6813461B019B1ADB000B44FA681A609D
:1011C000BB68D8B23449FA6813461B019B1ADB008E
:1011D0000B44043302461A707B68D8B22E49FA6871
:1011E00013461B019B1ADB000B44053302461A70A1
:1011F0002949FA6813461B019B1ADB000B4408338C
:101200003A681A602449FA6813461B019B1ADB00EE
:101210000B44063300221A701F49FA6813461B015B
:101220009B1ADB000B44203300221A600023FB755D
:101230000EE0F97D1848FA6813461B019B1A5B0003
:101240000B441433002240F82320FB7D0133FB754F
:10125000FB7D072BEDD91049FA6813461B019B1A39
:10126000DB000B444C3300221A60FA6813461B0162
:101270009B1ADB00084A134401220121184605F09D
:10128000F7FBFA6813461B019B1ADB00024A134462
:1012900018461837BD4680BD5C30002080B483B04E
:1012A00000AF786039607B683A681A6700BF0C3716
:1012B000BD465DF8047B704780B582B000AF002367
:1012C0007B604BE029497A6813461B019B1ADB00BF
:1012D0000B441B68002B3ED024497A6813461B013F
:1012E0009B1ADB000B4470331B68002B33D01F4963
:1012F0007A6813461B019B1ADB000B4470331B6892
:10130000591E1A487A6813461B019B1ADB000344D6
:101310007033196015497A6813461B019B1ADB006C
:101320000B4470331B68002B15D110497A681346A3
:101330001B019B1ADB000B441433D3221A607A681A
:1013400013461B019B1ADB00084A1344D32219469B
:10135000002000F027FC7B6801337B607B68032B57
:10136000B0DD00BF00BF0837BD4680BD5C30002047
:1013700080B500AF4FF4F0720021024824F050FF16
:1013800000BF80BD5C30002080B485B000AF7860C5
:101390000023FB600EE00C4AFB6852F82330002B60
:1013A00005D10949FB687A6841F8232006E0FB680B
:1013B0000133FB60FB68032BEDDD00BF00BF14377A
:1013C000BD465DF8047B7047FC19002080B588B0ED
:1013D00000AF1B4B1B68013B194A1360184B1B687D
:1013E000002B29D1164B64221A6007F10803002252
:1013F0001946144812F08CFE0346002B16D17A7A57
:10140000114B1A700023FB610DE0104AFB6952F882
:101410002330002B04D00D4AFB6952F82330984743
:10142000FB690133FB61FB69032BEEDD3B1D0022F1
:101430001946044812F054FF00BF2037BD4680BD56
:1014400000000020B4C101200C1A0020FC1900206B
:1014500080B483B000AF78607B685B6818460C3757
:10146000BD465DF8047B704780B483B000AF786000
:101470007B689B6818460C37BD465DF8047B704757
:1014800080B483B000AF786039607B683A689A6056
:1014900000BF0C37BD465DF8047B704780B483B055
:1014A00000AF78607B6800221A607B6800225A6077
:1014B00000BF0C37BD465DF8047B704780B584B033
:1014C00000AF786039607B685B68002B02D17B6875
:1014D0003A685A607B681B68FB607B683A681A60F0
:1014E000F9683868FFF7CCFF00BF1037BD4680BDF4
:1014F00080B584B000AF786039607B681B683A685B
:101500009A4206D13868FFF7AFFF02467B681A603F
:1015100011E03968786800F04BF8F860FB68002B40
:1015200008D03868FFF7A0FF03461946F868FFF7B0
:10153000A7FF00E000BF1037BD4680BD80B584B076
:1015400000AF786039607B681B683A689A421BD0AC
:101550003968786800F02CF8F860FB68002B12D02E
:101560003868FFF781FF03461946F868FFF788FFE0
:101570007B681B68FB607B683A681A60F9683868AA
:10158000FFF77EFF00E000BF1037BD4680BD80B48E
:1015900083B000AF78607B681B68002B0CBF012311
:1015A0000023DBB218460C37BD465DF8047B70475C
:1015B00080B584B000AF786039607868FFF7E7FFE6
:1015C0000346002B01D0002317E07B681B68FB60FB
:1015D0000BE0F868FFF748FF0346002B01D100231A
:1015E0000BE0F868FFF740FFF860F868FFF73CFF92
:1015F00002463B689342ECD1FB6818461037BD4663
:1016000080BD80B483B000AF78607B685B681A6887
:101610007B681A607B681B6818460C37BD465DF80E
:10162000047B704780B582B000AF78607B681A6831
:101630007B685B685B689A4201D1002309E07B68A4
:101640001B681846FFF710FF02467B681A607B682C
:101650001B6818460837BD4680BD80B582B000AF14
:10166000786039607868FFF7CCFF7B685B681B683F
:10167000002B09D1002312E07868FFF7D3FF03465F
:10168000002B01D100230AE07B681B681846FFF796
:10169000DFFE02463B689342EED17B681B6818462A
:1016A0000837BD4680BD000080B582B000AF4FF462
:1016B000706200210C4824F0B3FD00237B600BE036
:1016C0007B68DBB2DB00D9B2084A7B6813440A4668
:1016D0001A707B6801337B607B681C2BF0DD00BFD8
:1016E00000BF0837BD4680BD101A00201029002019
:1016F00080B584B000AF78600023FB814AE0FA89AE
:10170000284913461B019B1ADB000B441B68002B66
:101710003DD1FA8913461B019B1ADB00214A134471
:1017200078220021184624F07BFDFA891D491346D2
:101730001B019B1ADB000B447A681A60FA8919496D
:1017400013461B019B1ADB000B4403F17002137953
:1017500043F002031371FA89124913461B019B1AC5
:10176000DB000B44553300221A70FA890D491346E9
:101770001B019B1ADB000B44563364221A80FA8942
:1017800013461B019B1ADB00064A134406E0FB8943
:101790000133FB81FB891F2BB1D900231846103779
:1017A000BD4680BD101A002080B485B000AF7860BF
:1017B0000023FB8115E0FA890F4913461B019B1A90
:1017C000DB000B441B687A689A4207D1FA891346FA
:1017D0001B019B1ADB00084A134406E0FB89013316
:1017E000FB81FB891F2BE6D9002318461437BD4621
:1017F0005DF8047B704700BF101A002080B485B0EC
:1018000000AF786039603B68FB8114E0FA897B683F
:10181000143253F82230002B11D0FB89591CFA895D
:101820007B68143153F821107B68143243F822107E
:10183000FB890133FB81FB89062BE7D900E000BF60
:10184000FA897B681432002143F822107B68DA6C35
:101850007B68143253F82230002B08D17B68DB6C94
:10186000002B04D07B68DB6C5A1E7B68DA6400BFF7
:101870001437BD465DF8047B704780B483B000AF79
:1018800078607B68B3F8723018460C37BD465DF857
:10189000047B704780B582B000AF78600B467B80D8
:1018A0007B687A88A3F872207A6892F875306FF3B3
:1018B000000382F87530786800F06CFB7B88002BA1
:1018C00003D07B68192283F8702000BF0837BD461B
:1018D00080BD80B483B000AF78607B68B3F85630C9
:1018E000C3F30E039BB218460C37BD465DF8047B6C
:1018F000704780B483B000AF78607B68B3F856302F
:101900001BB29BB2DB0BDBB218460C37BD465DF851
:10191000047B704780B483B000AF78607B6893F835
:10192000543018460C37BD465DF8047B704780B4D0
:1019300083B000AF78600B467B807B88DAB27B682F
:1019400083F854207A6892F8743043F0020382F8E6
:10195000743000BF0C37BD465DF8047B704780B41F
:1019600083B000AF78607B6893F8623018460C371C
:10197000BD465DF8047B704780B582B000AF7860EB
:101980000B46FB707B68FA7883F862207A6892F8DD
:1019900075306FF3000382F87530786800F0FAFA5A
:1019A0007A6892F8743043F0020382F8743000BF12
:1019B0000837BD4680BD80B483B000AF78607B68D7
:1019C0009B6E9BB218460C37BD465DF8047B704792
:1019D00080B483B000AF78607B685B6E18460C37CC
:1019E000BD465DF8047B704780B582B000AF78607B
:1019F00039607B685A6E3B685340DBB2002B06D0DF
:101A00007A6892F8753043F0010382F875307B688C
:101A10005A6E3B68534003F47F43002B13D07B681E
:101A200093F87530C3F30003DBB25BB243F00203FB
:101A30005BB203F00103D9B27A6892F8753061F3B2
:101A4000000382F875307B685A6E3B68534003F49C
:101A50007F03002B13D07B6893F87530C3F300032A
:101A6000DBB25BB243F003035BB203F00103D9B214
:101A70007A6892F8753061F3000382F875307B68FC
:101A80005A6E3B685340B3F1807F13D37B6893F861
:101A90007530C3F30003DBB25BB243F004035BB207
:101AA00003F00103D9B27A6892F8753061F300034C
:101AB00082F875307B683A685A66786800F06AFA8E
:101AC0007B680A2283F871207A6892F8743043F0B8
:101AD000020382F8743000BF0837BD4680BD80B471
:101AE00083B000AF78607B681B689BB218460C37E8
:101AF000BD465DF8047B704780B483B000AF78606A
:101B00007B681B6D9BB203F07F039BB218460C37BA
:101B1000BD465DF8047B704780B483B000AF786049
:101B20007B681B6DDBB223F07F03DBB218460C37FA
:101B3000BD465DF8047B704780B483B000AF786029
:101B4000002318460C37BD465DF8047B7047000043
:101B500080B483B000AF0023FB8016E0FA88104900
:101B600013461B019B1ADB000B441B68002B09D09A
:101B7000FA880B4913461B019B1ADB000B44723396
:101B800000221A80FB880133FB80FB881F2BE5D9DC
:101B900000BF00BF0C37BD465DF8047B704700BF37
:101BA000101A002080B485B000AF0346B9607A6097
:101BB000FB73254B1A78254B1B789A420DD1224B8B
:101BC0001B781946224A0B465B000B449B001344CA
:101BD0001B78002B01D0002330E01B4B1B781946EB
:101BE0001B4A0B465B000B449B0013440833BA6846
:101BF0001A60154B1B781946154A0B465B000B44BF
:101C00009B001344FA7B1A700F4B1B781946104A3D
:101C10000B465B000B449B00134404337A681A6044
:101C2000094B1B780133DAB2074B1A70064B1B784D
:101C3000142B02D1044B00221A70012318461437CA
:101C4000BD465DF8047B7047202A0020212A002031
:101C50003029002080B485B000AF786039602C4B0B
:101C60001A782C4B1B789A420DD12A4B1B781946B7
:101C7000294A0B465B000B449B0013441B78002B46
:101C800001D100233DE0234B1B781946224A0B4625
:101C90005B000B449B00134408331B68FB601D4B27
:101CA0001B7819461C4A0B465B000B449B001344EF
:101CB0001A787B681A70174B1B781946164A0B4620
:101CC0005B000B449B00134404331A683B681A60A2
:101CD000104B1B781946104A0B465B000B449B00C7
:101CE000134400221A700B4B1B780133DAB2094BF4
:101CF0001A70084B1B78142B02D1064B00221A7065
:101D0000FB6818461437BD465DF8047B704700BF7A
:101D1000202A0020212A00203029002080B483B00E
:101D200000AF0F4B00221A700E4B00221A700023D6
:101D30007B600BE00C497A6813465B0013449B0000
:101D40000B4400221A707B6801337B607B68132B85
:101D5000F0DD00BF00BF0C37BD465DF8047B704767
:101D6000202A0020212A00203029002080B485B0BC
:101D700000AF7860084611461A4603467B800B4642
:101D80007B7013463B700023FB730023BB733B78CF
:101D9000002B38D17B88002B03D07B88013B9BB282
:101DA0007B80BB1C01331B785BB203F003035BB287
:101DB00043F07C035BB27B737B685A1C7A607A7B4E
:101DC0001A70FA7B7B7B5340FB73BB1C1B787B73C5
:101DD0007B685A1C7A607A7B1A70FA7B7B7B534053
:101DE000FB737B685A1C7A607A781A70FA7B7B786E
:101DF0005340FB737B685A1C7A60FA7B1A707B68CD
:101E000000221A7029E07B88002B03D07B88013BDD
:101E10009BB27B807B885BB203F003035BB243F031
:101E200078035BB27B737B685A1C7A607A7B1A708A
:101E3000FA7B7B7B5340FB737B685A1C7A607A7811
:101E40001A70FA7B7B785340FB737B685A1C7A606C
:101E5000FA7B1A707B6800221A70BB7B0433184629
:101E60001437BD465DF8047B7047000080B584B030
:101E700000AF0023FB60184B1B68032B27D801A27F
:101E800052F823F0C91E0008951E0008C91E00085C
:101E9000B11E0008FB68012B03D10F4B00221A6012
:101EA00014E0FB68022B11D10B4B00221A600DE0ED
:101EB0000A4B19880A4B1A78381D0023FFF756FF82
:101EC000054B01221A6002E000BF00E000BF00BF26
:101ED0001037BD4680BD00BF242A0020282A0020DC
:101EE0002A2A002080B582B000AF2248FFF7D6FA38
:101EF0000023FB800DE0FA8813465B0013449B002F
:101F00001D4A134419461B48FFF7D8FAFB880133D2
:101F1000FB80FB881F2BEED91848FFF7BFFA184B40
:101F2000164A5A601648FFF76CFB1648FFF7B6FAD8
:101F30000023FB800DE0FA8813465B0013449B00EE
:101F4000114A134419460F48FFF7B8FAFB880133CA
:101F5000FB80FB880F2BEED90C48FFF79FFA0C4B48
:101F60000A4A5A600A48FFF74CFB00BF0837BD46D3
:101F700080BD00BF6C2C00202C2A0020742C002077
:101F80007C2C0020842C0020AC2B00208C2C0020EA
:101F9000942C002080B586B000AF7860174B5B684A
:101FA0003B617B681B681A4607F10C031146184613
:101FB000FFF753FB78617B69002B11D100F054F8D7
:101FC00078617B697A681A607B681B681A467B694E
:101FD0005A600A4B5B6879691846FFF76FFA05E0AB
:101FE000064B5B6879691846FFF7A8FA0348FFF7C4
:101FF00008FB00BF1837BD4680BD00BF7C2C002009
:1020000080B586B000AF00233B61154B5B68BB60B9
:102010003B1D1846FFF7F5FA78610EE07B691B68F7
:10202000FB60FB681B681A467B695A607B693B61F1
:102030003B1D1846FFF7F6FA78617B69002BEDD15E
:102040003B69002B02D03B6900229A607969054800
:10205000FFF734FA7B691B6818461837BD4680BD08
:102060007C2C00206C2C002080B582B000AF0B4887
:10207000FFF78DFA0346002B01D0002309E0074B40
:102080001B687B60054B1B6819460448FFF730FA54
:102090007B6818460837BD4680BD00BF6C2C002009
:1020A00080B483B000AF78607B681B6843F00102A6
:1020B0007B681A6000BF0C37BD465DF8047B704733
:1020C00080B483B000AF78607B681B6823F00102A6
:1020D0007B681A6000BF0C37BD465DF8047B704713
:1020E00080B489B000AF786039607B68FB60FB68C2
:1020F00053E8003FBB60BB6823F00C033A6813430E
:10210000FB617B68FA69BA617B617969BA6941E808
:1021100000233B613B69002BE7D100BF00BF2437A0
:10212000BD465DF8047B704780B483B000AF786033
:1021300039607B681B6823F400423B681A437B6864
:102140001A6000BF0C37BD465DF8047B704780B451
:1021500085B000AFF860B9607A603B60FB681B68CF
:1021600023F0805323F4B0537968BA680A431A43C2
:10217000FB681A60FB685B6823F440523B681A43B3
:10218000FB685A6000BF1437BD465DF8047B70479A
:1021900080B483B000AF786039607B689B6823F4BB
:1021A00040723B681A437B689A6000BF0C37BD469B
:1021B0005DF8047B7047000080B487B000AFF86022
:1021C000B9607A603B607B680B2B3CD83B6A002B84
:1021D00039D03B68B3F5004F22D17B68DBB21A4699
:1021E0001C4B53F82230BA68B2FBF3F35A003B6A37
:1021F0005B081A443B6AB2FBF3F39BB27B617A69DA
:102200004FF6F07313403B617B695B089BB203F0B0
:1022100007033A6913433B61FB683A69DA6012E0ED
:102220007B68DBB21A460B4B53F82230BA68B2FB1C
:10223000F3F23B6A5B081A443B6AB2FBF3F39BB2CE
:102240001A46FB68DA6000BF1C37BD465DF8047BA8
:10225000704700BF68B2020880B483B000AF7860F6
:102260007B68DB6903F01003102B01D1012300E030
:10227000002318460C37BD465DF8047B704780B4D8
:1022800083B000AF78607B68DB6903F02003202B0C
:1022900001D1012300E0002318460C37BD465DF84C
:1022A000047B704780B483B000AF78607B68DB69E3
:1022B00003F04003402B01D1012300E00023184626
:1022C0000C37BD465DF8047B704780B483B000AF27
:1022D00078607B68DB6903F08003802B01D10123E8
:1022E00000E0002318460C37BD465DF8047B7047BC
:1022F00080B483B000AF78607B6801221A6200BFAF
:102300000C37BD465DF8047B704780B483B000AFE6
:1023100078607B6802221A6200BF0C37BD465DF808
:10232000047B704780B483B000AF78607B68042280
:102330001A6200BF0C37BD465DF8047B704780B45D
:1023400083B000AF78607B6808221A6200BF0C3748
:10235000BD465DF8047B704780B483B000AF786001
:102360007B6810221A6200BF0C37BD465DF8047B03
:10237000704780B483B000AF78607B6840221A62F7
:1023800000BF0C37BD465DF8047B704780B489B050
:1023900000AF78607B68FB60FB6853E8003FBB6080
:1023A000BB6843F01003FB617B68FA69BA617B612B
:1023B0007969BA6941E800233B613B69002BE9D1A7
:1023C00000BF00BF2437BD465DF8047B704780B472
:1023D00089B000AF78607B68FB60FB6853E8003F22
:1023E000BB60BB6843F02003FB617B68FA69BA619C
:1023F0007B617969BA6941E800233B613B69002B45
:10240000E9D100BF00BF2437BD465DF8047B7047AB
:1024100080B489B000AF78607B68FB60FB6853E8EC
:10242000003FBB60BB6843F04003FB617B68FA6917
:10243000BA617B617969BA6941E800233B613B6914
:10244000002BE9D100BF00BF2437BD465DF8047BF7
:10245000704780B489B000AF78607B68FB60FB6830
:1024600053E8003FBB60BB6843F08003FB617B68BF
:10247000FA69BA617B617969BA6941E800233B6115
:102480003B69002BE9D100BF00BF2437BD465DF892
:10249000047B704780B489B000AF78607B68FB60D4
:1024A000FB6853E8003FBB60BB6823F04003FB615F
:1024B0007B68FA69BA617B617969BA6941E800238E
:1024C0003B613B69002BE9D100BF00BF2437BD460B
:1024D0005DF8047B704780B489B000AF78607B689A
:1024E000FB60FB6853E8003FBB60BB6823F08003E0
:1024F000FB617B68FA69BA617B617969BA6941E815
:1025000000233B613B69002BE9D100BF00BF2437AA
:10251000BD465DF8047B704780B483B000AF78603F
:102520007B681B6803F01003102B01D1012300E02E
:10253000002318460C37BD465DF8047B704780B415
:1025400083B000AF78607B681B6803F02003202B0A
:1025500001D1012300E0002318460C37BD465DF889
:10256000047B704780B483B000AF78607B681B68E1
:1025700003F08003802B01D1012300E000231846E3
:102580000C37BD465DF8047B704780B483B000AF64
:1025900078607B685B6ADBB218460C37BD465DF835
:1025A000047B704780B483B000AF78607B685B6A5F
:1025B0009BB2C3F308039BB218460C37BD465DF8C7
:1025C000047B704780B483B000AF78600B46FB702B
:1025D000FA787B689A6200BF0C37BD465DF8047BD1
:1025E000704780B483B000AF78600B467B807B88F7
:1025F000C3F308027B689A6200BF0C37BD465DF8E2
:10260000047B704780B58AB002AF78601C2279687D
:10261000424823F03CFF424BD3F89C30404A43F4FD
:102620000033C2F89C303E4BD3F89C3003F40033A7
:10263000BB60BB683B48FFF743FD0C213948FFF7FF
:102640004FFD7B6859687B689A687B68DB68354812
:10265000FFF77DFD00213348FFF79AFD0021314847
:10266000FFF762FD304B19687B681B6900930023FC
:1026700000222C48FFF7A0FD7B681B78002B03D0BD
:102680007B681B78022B02D12648FFF77FFE254886
:10269000FFF79DFE2348FFF703FD244B01221A702C
:1026A0002023FB6002233B6100237B610223BB618B
:1026B0000723FB6107F10C0319461D480BF03AF99B
:1026C0004023FB6002233B6100237B610223BB614B
:1026D0000723FB6107F10C03194615480BF02AF993
:1026E0001023FB6001233B6100237B610223BB615C
:1026F0000023FB6107F10C0319460D480BF01AF992
:10270000002200213B200AF0A5FA3B200AF0BCFA87
:10271000002318462037BD4680BD00BF9C2C0020FA
:10272000000C024400440040ECC50120D92C0020DC
:10273000000C024280B483B000AF7860104B1A885E
:10274000104B1B889A4201D1002312E00C4B1B88CE
:102750005A1C91B20A4A11801A460B4B9A5C7B684C
:102760001A70074B1B887F2B02D9054B00221A8059
:10277000012318460C37BD465DF8047B704700BF47
:10278000DE2C0020E02C0020642D002080B582B0DB
:1027900000AF9048FFF773FD0346002B00F08180E7
:1027A0008C48FFF7CCFE0346002B7AD08A4B1B786F
:1027B000022B46D18748FFF7F5FE0346BB80864BC8
:1027C0001B78012B13D13B1D1A78844B1A707A7930
:1027D000824B5A70824B02221A707F4B5B69002B2E
:1027E0005FD07D4B5B697E497E48984759E03A1D32
:1027F0007D4B1B88591C88B27B490880194612788A
:10280000764B5A54784B1B887F2B02D9764B00228B
:102810001A80754B1B885A1C91B2734A11801A4654
:1028200079796E4B9954704B1B887F2B02D96E4B74
:1028300000221A806A4B1B780133DAB2684B1A7097
:102840002FE06448FFF7A1FE0346FB71624B1B7843
:10285000012B0FD1FA79634B1A70614B01221A7068
:102860005D4B5B69002B1CD05B4B5B695C495D4831
:10287000984716E05C4B1B885A1C91B25A4A11804B
:102880001A46F979554B9954574B1B887F2B02D91F
:10289000554B00221A80524B1B780133DAB2504B51
:1028A0001A704C48FFF7D8FC0346002B2ED049483D
:1028B000FFF732FE0346002B28D04648FFF74CFDB9
:1028C000454B1B78002B03D0434B1B78022B1DD1AB
:1028D000434B00221A7009E0414B1B785A1CD1B2BD
:1028E0003F4A11701A46F9793E4B9954FB1D184620
:1028F000FFF720FF0346002BEED1374B5B69002B1F
:1029000004D0354B5B693649364898473148FFF764
:10291000DCFC0346002B38D02E48FFF723FE03468D
:10292000002B32D0314B1A88314B1B889A4219D078
:102930002F4B1B885A1C91B22D4A11801A462D4BE1
:102940009B5CFB712A4B1B887F2B02D9284B0022F2
:102950001A80FB7919461F48FFF734FE264B0022E8
:102960001A7012E01B48FFF7B6FD234B01221A70C4
:10297000194B9B69002B02D0174B9B699847154850
:10298000FFF7F7FC1348FFF743FD1248FFF78AFCF7
:102990000346002B07D00022102118480BF034F911
:1029A0000C48FFF777FD0B48FFF7A2FC0948FFF73B
:1029B000ACFC0848FFF7B6FC0648FFF7C0FC05482A
:1029C000FFF7CAFC0348FFF7D4FC00BF0837BD4639
:1029D00080BD00BF004400409C2C0020642D0020DE
:1029E000D82C0020B82C0020E02C0020DA2C00206D
:1029F000DC2C0020E42C0020D92C0020000C02420A
:102A000080B584B000AF0346FB710023FB60012258
:102A100010213C480BF0F8F802E0FB680133FB6042
:102A2000394B1B880133394A12889342F5D002E0B2
:102A3000FB680133FB60344B1B887F2B03D1334B86
:102A40001B88002BF4D0304B1A88304B1B889A42DD
:102A500019D22E4B1B881A462B4B1B88D31A012BDD
:102A600043DD294B1B885A1C91B2274A1180194615
:102A7000274AFB795354244B1B887F2B35D9224B93
:102A800000221A8031E0204B1A88204B1B889A4282
:102A90001AD91E4B1B881A461B4B1B88D31A13F1DD
:102AA0007E0F22DB184B1B885A1C91B2164A1180EC
:102AB0001946174AFB795354134B1B887F2B14D9A3
:102AC000114B00221A8010E00F4B1B885A1C91B248
:102AD0000D4A118019460E4AFB7953540A4B1B8844
:102AE0007F2B02D9084B00221A800A4B1B78002B3F
:102AF00003D00948FFF7ADFC00BF00BF1037BD464B
:102B000080BD00BF000C0242DA2C0020DC2C00202B
:102B1000E42C0020D92C00200044004080B584B073
:102B200000AF78600B46FB700023FB60FB78802BC6
:102B300011D80023FB6009E0FB687A6813441B7816
:102B40001846FFF75DFFFB680133FB60FB78FA680E
:102B50009A42F1DB00E000BF1037BD4680BD0000A7
:102B600080B582B000AF0346FB71012210211148ED
:102B70000BF04AF8104B5B68B3F5805F0AD1FB7924
:102B80001BB243F480731BB29BB219460B48FFF78C
:102B900028FD04E0FB7919460848FFF713FD084BB0
:102BA0001B78002B02D00548FFF753FC00BF083705
:102BB000BD4680BD000C02429C2C00200044004019
:102BC000D92C002080B58AB000AF0346FB710123E9
:102BD0003B720023FB6000233B614FF400537B6199
:102BE0004FF41653BB61684BFB61684B3B6207F1C6
:102BF00008031846FFF706FD0346002B01D008F036
:102C0000D9F90A220021624823F00AFB002387F841
:102C10002730A0E097F8273097F827200132D1B26B
:102C20005C4AD1544FF40C7200215B4823F0F8FA4F
:102C300097F8272058491346DB009B1ADB000B440A
:102C400003F1300213796FF34103137197F82720D2
:102C500051491346DB009B1ADB000B4403F13002A1
:102C600013796FF38203137197F827204A491346AB
:102C7000DB009B1ADB000B4403F1300213796FF386
:102C8000C303137197F8272043491346DB009B1AAF
:102C9000DB000B4403F1300213796FF3041313715B
:102CA00097F827203C491346DB009B1ADB000B44B6
:102CB00003F1300213796FF30003137197F82720A3
:102CC00035491346DB009B1ADB000B4403F130024D
:102CD00013796FF34513137197F827202E49134684
:102CE000DB009B1ADB000B4403F1300213796FF316
:102CF0008613137197F8272027491346DB009B1A88
:102D0000DB000B44263300221A8097F82720224943
:102D10001346DB009B1ADB000B44283300221A8089
:102D200097F827201C491346DB009B1ADB000B4455
:102D30002A3300221A8097F8272017491346DB0010
:102D40009B1ADB000B442C3300221A8097F82730A3
:102D5000013387F8273097F82730082B7FF65AAFD2
:102D60000E4B00221A700E4B00221A700D4B0A22D5
:102D70001A700D4B00221A700C4B01221A7000BF02
:102D80002837BD4680BD00BF5D390008A93900085D
:102D9000E42D0020F02D0020FC2D002035300020F7
:102DA00036300020FA2D0020FB2D00203A30002084
:102DB00080B400AF1C4B1B78002B1BD11B4B1B7826
:102DC0000133DAB2194B1A70184B1B781A46184B9C
:102DD0009A5C154B1A70144B1B78002B1ED1134BA9
:102DE00000221A70114B1B781A46114B9A5C0E4B3D
:102DF0001A7013E00F4B1B780133DAB20D4B1A70C7
:102E00000C4B1B78092B02D90A4B00221A70094B74
:102E10001B781A46084B9A5C034B1A7000BFBD46DC
:102E20005DF8047B704700BF3A300020FB2D002086
:102E3000F02D0020FA2D0020E42D002080B485B074
:102E400000AF0346FB71184B1B78FB7309E0FB7B5B
:102E50005A1CFB7B1549895C144AD154FB7B013316
:102E6000FB73FB7B082BF2D9FB7B104A0021D1546A
:102E70000023FB730CE0FB7B0D4AD35C002B04D1D9
:102E8000FB7B0B49FA79CA5405E0FB7B0133FB73EA
:102E9000FB7B092BEFD9074B00221A7000BF1437B8
:102EA000BD465DF8047B7047FB2D0020F02D00200F
:102EB000E42D0020FA2D002080B485B000AF034639
:102EC000FB71174B1B78FB7309E0FB7B5A1CFB7BE8
:102ED0001449895C134AD154FB7B0133FB73FB7BA0
:102EE000082BF2D9FB7B0F4A0021D1540023FB733E
:102EF00007E0FB7B0C4AD35C002B06D0FB7B013345
:102F0000FB73FB7B092BF4D900E000BFFB7B064978
:102F1000FA79CA5400BF1437BD465DF8047B704788
:102F2000FA2D0020E42D0020F02D002080B485B083
:102F300000AF0346FB710023FB730AE0FB7B0A4AE8
:102F4000D35CFA799A4201D1012306E0FB7B01337D
:102F5000FB73FB7B092BF1D9002318461437BD46C0
:102F60005DF8047B704700BFE42D002080B582B07F
:102F700000AFA34B1B78042B00F2338101A252F85F
:102F800023F000BF992F0008B92F0008AF310008C7
:102F9000933000082F3100089A4B00221A709A4B88
:102FA00000221A70994B01221A60994B00221A7064
:102FB000934B01221A701FE1944B1B68013B934A0B
:102FC0001360924B1B68002B40F00F81904B1B78D5
:102FD000803BFB71FB791846FFF7C2FD8D4B002249
:102FE0001A708D4B00221A70894B1B78002B23D14D
:102FF000874B1B78184600F031FB0346002B03D0AB
:103000007F4B02221A70F0E0FFF7D2FE804B1B7854
:103010001946824A0B46DB005B1ADB00134403F1BE
:103020003002137943F020031371784B05221A60A4
:10303000734B01221A70D8E0754B1B781946774AFA
:103040000B46DB005B1ADB00134430331B79C3F300
:103050004013DBB2002B15D06D4B1B7819466F4A1D
:103060000B46DB005B1ADB00134403F130021379DB
:103070006FF345131371654B05221A60604B0422F0
:103080001A70B2E0614B05221A605D4B03221A7080
:10309000ABE0604B1B78002B23D05E4B00221A70F4
:1030A0005B4B1B78184600F0C1F8594B1B7818464B
:1030B00000F0D4FA0346002B03D0514B02221A70C1
:1030C00095E0FFF775FE4F4B1B781A46544B9A5C00
:1030D0004F4B1A704D4B05221A60494B01221A7052
:1030E00085E04A4B1B68013B484A1360474B1B680D
:1030F000002B7CD1464B1B781846FFF717FF034681
:10310000002B04D0424B1B781846FFF7D5FEFFF783
:103110004FFE3C4B1B781A46414B9A5C3C4B1A7055
:103120003A4B05221A60364B01221A705FE0394B88
:103130001B78002B23D0374B00221A70344B1B789E
:10314000184600F073F8324B1B78184600F086FAE8
:103150000346002B03D02A4B02221A7049E0FFF7E6
:1031600027FE284B1B781A462D4B9A5C284B1A7069
:10317000264B05221A60224B01221A7039E0234B9C
:103180001B68013B214A1360204B1B68002B30D188
:103190001C4B00221A701E4B00221A70FFF708FE0B
:1031A0001A4B05221A60164B01221A7021E01D4BA2
:1031B0001B780133DAB21B4B1A701B4B1B78002BA8
:1031C00003D1184B1B780A2B15D9174B00221A7004
:1031D000FFF7EEFD0D4B05221A60094B01221A7014
:1031E00009E0074B00221A7006E000BF04E000BFB0
:1031F00002E000BF00E000BF00BF0837BD4680BD51
:103200002C300020FA2D0020FB2D00203C30002027
:103210003A3000203530002036300020FC2D0020D0
:10322000E42D0020383000203730002090B585B0E4
:1032300000AF0346FB71FA79B8491346DB009B1ACD
:10324000DB000B4430331B79C3F38013DBB2012B5B
:1032500041D1B34B1B787B73FA79B0491346DB003D
:103260009B1ADB000B442E331B787A7B9A4224D0C6
:10327000FA79AA491346DB009B1ADB000B442E3374
:103280007A7B1A70F879797BFA791346DB009B1AFE
:10329000DB00A24A1344FC790A460121FDF766FFD0
:1032A00002469E492346DB001B1BDB000B443033E8
:1032B0001A60FB791846FFF7C1FDFA799749134662
:1032C000DB009B1ADB000B4403F1300213796FF330
:1032D00086131371CFE0924B1B787E2B4AD1FA797B
:1032E0008E491346DB009B1ADB000B4403F13002CE
:1032F000137943F002031371FA7988491346DB000E
:103300009B1ADB000B4403F13002137943F00403F2
:103310001371FA7981491346DB009B1ADB000B44D9
:1033200003F13002137943F008031371FA797B49F2
:103330001346DB009B1ADB000B4403F130021379C8
:1033400043F010031371FB79D221184600F03AFCC8
:10335000FB79184600F0A2FCFA7970491346DB00AD
:103360009B1ADB000B4403F13002137943F0400356
:10337000137180E06A4B1B787D2B7CD0FA7967490A
:103380001346DB009B1ADB000B4430331B68002B19
:103390004AD1FA7961491346DB009B1ADB000B44E2
:1033A00003F13002137943F002031371FA795B4998
:1033B0001346DB009B1ADB000B4403F13002137948
:1033C00043F004031371FA7954491346DB009B1A46
:1033D000DB000B4403F13002137943F0080313714F
:1033E000FA794E491346DB009B1ADB000B4403F1CC
:1033F0003002137943F010031371FB79184600F083
:103400004DFCFB79D221184600F0DCFBFA794349E8
:103410001346DB009B1ADB000B4403F130021379E7
:1034200043F04003137126E03D4B1B78403B3D4A7F
:1034300052F82330FB81B7F90E30B3F1FF3F1AD0B9
:10344000FA7936491346DB009B1ADB000B44303314
:103450001B68B7F90E205A61FA7930491346DB0030
:103460009B1ADB000B4430331B68B7F90E2019465A
:103470000120FEF797FB2A4B5B783B73397BFA7987
:1034800026481346DB009B1ADB00034423331B78DA
:103490001C46FA7921481346DB009B1ADB000344E3
:1034A00024331B782344994217DC397BFA791B4873
:1034B0001346DB009B1ADB00034423331B781C46B6
:1034C000FA7916481346DB009B1ADB0003442533C8
:1034D0001B78E31A994280F2BB80FA790F491346B0
:1034E000DB009B1ADB000B4423331B783A7B9A42A8
:1034F0001AD9FA7909491346DB009B1ADB000B4401
:10350000243300221A70FA7904491346DB009B1A0F
:10351000DB000B44253301221A7019E0FC2D00203A
:103520003030002004000020FA794B491346DB00BC
:103530009B1ADB000B44243301221A70FA794649A6
:103540001346DB009B1ADB000B44253300221A7064
:10355000FA7941491346DB009B1ADB000B44233305
:103560003A7B1A70FA793C491346DB009B1ADB0060
:103570000B4430331B68002B4AD1FA793649134685
:10358000DB009B1ADB000B4403F13002137943F09C
:1035900002031371FA7930491346DB009B1ADB00F2
:1035A0000B4403F13002137943F004031371FA79E9
:1035B00029491346DB009B1ADB000B4403F1300260
:1035C000137943F008031371FA7923491346DB009A
:1035D0009B1ADB000B4403F13002137943F0100314
:1035E0001371FB79184600F059FBFB79D22118467C
:1035F00000F0E8FAFA7918491346DB009B1ADB0061
:103600000B4403F13002137943F0400313711FE0C0
:103610003B7B1BB243F40073FB81FA790E491346DE
:10362000DB009B1ADB000B4430331B68B7F90E201C
:103630005A61FA7908491346DB009B1ADB000B44F8
:1036400030331B68B7F90E2019460120FEF7AAFA9D
:1036500000BF1437BD4690BDFC2D002080B586B05C
:1036600000AF0346FB71FA7978491346DB009B1AD9
:10367000DB000B4426331B88002B79D0FA79734981
:103680001346DB009B1ADB000B4426331B88FB75BB
:10369000FB7D3B730123BB75FB7DC82B05D0FB7DF8
:1036A000C92B02D0FB7DCA2B10D1FA79674913468A
:1036B000DB009B1ADB000B4426331B881B0A9BB2E2
:1036C000FB75FB7D7B73BB7D0133BB75BA7D07F159
:1036D0000C0311461846FFF721FA5D4B00221A70C1
:1036E0005C4B00221A70F979FA7958480B46DB00D6
:1036F0005B1ADB0003442833188854491346DB0067
:103700009B1ADB000B44263302461A80F979FA79BA
:103710004E480B46DB005B1ADB0003442A33188853
:103720004A491346DB009B1ADB000B442833024650
:103730001A80F979FA7945480B46DB005B1ADB0001
:1037400003442C33188841491346DB009B1ADB00E5
:103750000B442A3302461A80FA793C491346DB00AF
:103760009B1ADB000B442C3300221A80012368E0F3
:10377000FB79184600F070F803467B757B7D002BC3
:103780005ED07B7D013B7B757B7D032B16D801A230
:1037900052F823F0A5370008AB370008B13700080E
:1037A000B7370008C023FB750BE0C123FB7508E0A9
:1037B000C223FB7505E0C323FB7502E0C023FB7544
:1037C00000BFFB7D3B73FA79797D1346DB009B1AC2
:1037D0000B44DB001D4A991807F10C030133082242
:1037E000184622F054FE07F10C0309211846FFF792
:1037F00095F9174B00221A70164B00221A70FA79AD
:1038000012491346DB009B1ADB000B4430331B7953
:10381000C3F30003DBB2002B10D0FA790B49134637
:10382000DB009B1ADB000B4422331B781B0243F0A6
:10383000C802FB791146184600F070F9012300E038
:10384000002318461837BD4680BD00BFFC2D002060
:10385000373000203830002080B483B000AF0346FA
:10386000FB71FA793C491346DB009B1ADB000B44E1
:1038700030331B79C3F34003DBB2002B0ED0FA794F
:1038800035491346DB009B1ADB000B4403F1300281
:1038900013796FF341031371012357E0FA792E492D
:1038A0001346DB009B1ADB000B4430331B79C3F358
:1038B0008003DBB2002B0ED0FA7927491346DB00D8
:1038C0009B1ADB000B4403F1300213796FF3820380
:1038D000137102233AE0FA791F491346DB009B1A61
:1038E000DB000B4430331B79C3F3C003DBB2002B86
:1038F0000ED0FA7918491346DB009B1ADB000B4403
:1039000003F1300213796FF3C303137103231DE036
:10391000FA7911491346DB009B1ADB000B44303364
:103920001B79C3F30013DBB2002B0ED0FA790A49DE
:103930001346DB009B1ADB000B4403F130021379C2
:103940006FF304131371042300E0002318460C37AF
:10395000BD465DF8047B7047FC2D002080B483B029
:1039600000AF786039600D4B1B785A1CD1B20B4AFE
:1039700011701A467B681978094B9954074B1B78CC
:10398000012B05D9054B02221A70064B01221A7031
:1039900000BF0C37BD465DF8047B70473630002011
:1039A000303000203530002080B400AF034B0122BE
:1039B0001A7000BFBD465DF8047B704737300020A9
:1039C000B0B487B000AF3B600346FB710B46BB71E0
:1039D00013467B710023BB7591E03B681B78002B7D
:1039E00000F092803B685A1C3A601B78FB75FB7DA7
:1039F0000A2B09D17B7901337B710023BB713B68B2
:103A00005A1C3A601B78FB75FB7D3B613B690133B7
:103A1000404A13441B7803F00303022B02D13B6995
:103A2000203B00E03B69FB75FA797B795800B97956
:103A3000FB7D63F03F03DDB2374C1346DB009B1A7E
:103A40000344DB0023440B442A461A70BB79DB088D
:103A5000DAB27B795B00DBB21344FB73FB7B002B98
:103A60000DD1FA792C491346DB009B1ADB000B447D
:103A700003F13002137943F00203137131E0FB7B51
:103A8000012B0DD1FA7924491346DB009B1ADB0088
:103A90000B4403F13002137943F00403137120E067
:103AA000FB7B022B0DD1FA791B491346DB009B1AD5
:103AB000DB000B4403F13002137943F00803137168
:103AC0000FE0FB7B032B0CD1FA7913491346DB0083
:103AD0009B1ADB000B4403F13002137943F010030F
:103AE0001371BB790133BB71BB790F2B04D97B797F
:103AF00001337B710023BB71BB7D0133BB75BB7D83
:103B00001F2B7FF66AAF00E000BF00BF1C37BD4629
:103B1000B0BC7047D0C30208FC2D002080B483B035
:103B200000AF03463960FB71F979FA7924480B46F6
:103B3000DB005B1ADB0003442A3318882049134654
:103B4000DB009B1ADB000B442C3302461A80F97908
:103B5000FA791B480B46DB005B1ADB000344283371
:103B6000188817491346DB009B1ADB000B442A33E5
:103B700002461A80F979FA7911480B46DB005B1A84
:103B8000DB000344263318880D491346DB009B1ADB
:103B9000DB000B44283302461A80FA793B6898B25E
:103BA00007491346DB009B1ADB000B442633024611
:103BB0001A8000BF0C37BD465DF8047B704700BF1C
:103BC000FC2D002080B584B000AF03460A46FB718F
:103BD0001346BB71BB79FB60FB6801330C4A13448D
:103BE0001B7803F00303022B02D1FB68203B00E0AB
:103BF000FB68BB71BB791B0243F0CA02FB7911461B
:103C00001846FFF78BFF00BF1037BD4680BD00BFD1
:103C1000D0C3020880B483B000AF0346FB710B46EB
:103C2000BB7113467B717B799B01DAB2BB7913447C
:103C3000DBB25BB263F07F035BB2FA79D8B20749BB
:103C40001346DB009B1ADB000B44223302461A703A
:103C500000BF0C37BD465DF8047B7047FC2D00208B
:103C600080B582B000AF0346FB71FB79CF211846C7
:103C7000FFF754FFFA7908491346DB009B1ADB0073
:103C80000B4403F13002137943F00103137100BFB9
:103C90000837BD4680BD00BFFC2D002080B582B036
:103CA00000AF0346FB71FB79CE211846FFF736FFC4
:103CB000FA7908491346DB009B1ADB000B4403F139
:103CC000300213796FF30003137100BF0837BD464C
:103CD00080BD00BFFC2D002080B58AB000AF204B16
:103CE0001B78002B37D13B1D002219461D4810F0D0
:103CF0000FFA0346002B21D11B4B1B68002B08D069
:103D00003B791A467B7907F11800184922F076F9B9
:103D100014E03B790C2B09D93B79A3F10C027B7998
:103D200007F11800124922F069F907E03B791A46B9
:103D30007B7907F118000F4922F060F93B46002219
:103D40001946084810F0CCFA07F1180300220821A0
:103D50000020FFF735FE00BF2837BD4680BD00BFFD
:103D600039300020B4C1012064B50120786902080F
:103D7000846902089069020880B483B000AF0346EA
:103D8000FB71044AFB79137000BF0C37BD465DF828
:103D9000047B70473930002080B582B000AF786076
:103DA00002E07B6801337B607B681B78002B09D0C5
:103DB0007B681B780133074A13441B7803F0040324
:103DC000002BEED0786821F0FBFA0346184608373E
:103DD000BD4680BDD0C3020880B58CB000AF78600E
:103DE0003960002387F82E307B689B691A687B68EE
:103DF000DB6919460B469B000B449B0013449B68F0
:103E0000BB627B689B691A687B68DB6919460B4655
:103E10009B000B449B0013445B687B627B682633EA
:103E20003B62BB6A002B00F0CF803B68D22B3CD0BA
:103E30003B68D22B40DC3B68D12B16D03B68D12BA2
:103E40003ADC3B68902B02D03B68D02B34D13B6AE4
:103E500000221A707B6800221A627B68012283F8B4
:103E60002520012387F82E3079E07B6800221A6232
:103E70007B68012283F82520BB6A1B681A465449D7
:103E8000386A22F0BBF87B681B68DBB201220F2185
:103E90001846FFF7BFFE7B681B68DBB21846FFF7CA
:103EA000DFFE012387F82E3059E0386A21F088FAC6
:103EB0000246BB6A1A6052E03B68DBB20133454AF6
:103EC00013441B7803F00403002B47D0786AFFF7F4
:103ED00063FF0346FB77386AFCF7E4F90246FB7F91
:103EE0009A4204D07B6893F82530012B09D17B6876
:103EF000002283F825207B6800221A623B6A002298
:103F00001A70386AFCF7CEF90346DBB2013387F842
:103F10002F300FE097F82F30013B3A6A1A4497F898
:103F20002F30396A0B4412781A7097F82F30013B02
:103F300087F82F3097F82F207B681B6A9A42E9D1C7
:103F40007B681B6A591C7A6811621A463B6A1344E3
:103F50003A68D2B21A70012387F82E3000BF97F862
:103F60002E30002B30D0386A21F02AFA0346002B7D
:103F70000DD17B6893F82530012B08D17B681B6835
:103F8000D8B2154B01220C21FFF71AFD1CE0386A4C
:103F900021F016FA024607F10C03796A184622F05E
:103FA0002DF807F10C031846FCF77CF90346FB7764
:103FB0007B681B68D8B2FB7FC3F11003D9B207F14D
:103FC0000C030122FFF7FCFC00BF3037BD4680BD6B
:103FD0009C690208D0C30208A069020880B586B0B7
:103FE00000AF786039600023FB757B689B691A68B5
:103FF0007B68DB6919460B469B000B449B0013440E
:104000009B683B617B689B691A687B68DB69194622
:104010000B469B000B449B0013445B68FB603B68B2
:10402000D22B34D03B68D22B52DC3B68822B38D069
:104030003B68D12B4CD17B6800221A6304E07B687B
:104040001B6B5A1C7B681A637B681B6B9B00FA68AE
:1040500013441B68002BF2D13B69002B03D17B6812
:104060000022DA620AE03B691B687A68126B93FBF4
:10407000F2F101FB02F29A1A7B68DA627B681B6834
:10408000DBB21846FFF70AFE0123FB753EE03B69F1
:10409000002B03D07B68DA6A3B691A600123FB7549
:1040A00034E07B68DB6A5A1C7B68DA627B68DA6A18
:1040B0007B681B6B9A4208D17B6890225A619022E0
:1040C00079680120FDF76EFD20E00123FB751DE0FE
:1040D0003B68DBB20133174A13441B7803F0040337
:1040E000002B12D03B68313BBB607B681B6BBA680E
:1040F0009A420ADA7B68BA68DA627B6881225A617E
:10410000812279680120FDF74DFD00BFFB7D002B6A
:104110000CD07B681B68D8B27B68DB6A9B00FA68AE
:1041200013441B6801220021FFF74AFC00BF183727
:10413000BD4680BDD0C3020880B582B000AF7860B4
:1041400039603B68132B0ADD7B68D8B23B68DBB271
:104150000E3BDBB201221946FFF75CFD17E03B681E
:10416000092B0ADD7B68D8B23B68DBB2043BDBB2CB
:1041700000221946FFF74EFD09E07B68D8B23B6884
:10418000DBB20633DBB200221946FFF743FD7B6842
:10419000DBB21846FFF764FD00BF0837BD4680BD9F
:1041A00080B584B000AF786039607B68DA6C7B687A
:1041B000143253F82230FB603B68C02B32D101200F
:1041C000FFF7DAFD7B681B6A092B02DC7B680A2299
:1041D0001A62FB68002B20D0F868FDF780FC0346CC
:1041E0001A464FF6FE739A4217D000217868FDF701
:1041F00055F82749786801F055FA7B682F225A63F1
:104200007B681A687B681B6A19461046FFF794FFA3
:104210007B68012283F8242036E00021786802F0D0
:104220001FFD31E03B68C12B09D17B681B68DBB205
:104230001846FFF733FD0020FFF79EFD24E0154AE6
:104240003968786802F021FD0346002B1CD17B6899
:104250009B691A687B68DB6919460B469B000B4417
:104260009B001344DB68002B0ED07B689B691A68A7
:104270007B68DB6919460B469B000B449B0013448B
:10428000DB6839687868984700BF1037BD4680BD45
:1042900098B3020898B2020880B582B000AF786087
:1042A00039607B6800225A6301220121786802F09C
:1042B000DFFB0021786802F0D3FC00BF0837BD4661
:1042C00080BD0000B0B58AB000AF786039607B680F
:1042D0001B6A092B68DC684B07F108041D460FCDEB
:1042E0000FC42B68237042233B7448237B74002344
:1042F0003B620623FB6100237B6216E05F4A3B6A58
:1043000052F823203B681340002B05D107F1080227
:10431000FB6913442D221A703B6A01333B62FB692F
:104320000133FB617B6A01337B627B6A092BE5DD2C
:104330007B681B68D8B207F1080300220021FFF751
:104340003FFB4F4B07F108041D460FCD0FC42B68F0
:1043500023700A233B620623FB6100237B6216E085
:10436000464A3B6A52F823203B681340002B05D194
:1043700007F10802FB6913442D221A703B6A0133CE
:104380003B62FB690133FB617B6A01337B627B6AC1
:10439000092BE5DD7B681B68D8B207F10803012211
:1043A0000021FFF70DFB63E0354B07F108041D46C4
:1043B0000FCD0FC42B6823700A233B620623FB61D9
:1043C00000237B6216E02D4A3B6A52F823203B68AB
:1043D0001340002B05D107F10802FB6913442D227D
:1043E0001A703B6A01333B62FB690133FB617B6AF4
:1043F00001337B627B6A092BE5DD7B681B68D8B2E1
:1044000007F1080300220021FFF7DAFA1D4B07F13C
:1044100008041D460FCD0FC42B68237014233B6284
:104420000623FB6100237B6216E0144A3B6A52F8C4
:1044300023203B681340002B05D107F10802FB69DC
:1044400013442D221A703B6A01333B62FB6901332E
:10445000FB617B6A01337B627B6A082BE5DD7B684D
:104460001B68D8B207F1080301220021FFF7A8FA60
:1044700000BF2837BD46B0BDA869020848BA020887
:10448000BC690208D069020880B586B000AF7860C8
:1044900039600023FB747B68DA6C7B68143253F854
:1044A0002230FB603B68D12B06D1F868FDF790FA0B
:1044B00078610123FB74B3E0F868FDF789FA78614D
:1044C0003B68813B1B2B00F2958001A252F823F040
:1044D000BF450008F5450008F5450008F54500080A
:1044E000F5450008F5450008F5450008F5450008C4
:1044F000F5450008F5450008414500085B45000802
:10450000F5450008F5450008F5450008F5450008A3
:10451000F5450008F5450008F5450008F545000893
:10452000F5450008F5450008F5450008F545000883
:10453000F5450008F5450008774500089B4500084B
:104540007B681B6A5A1C7B681A627B681B6A1C2B7F
:104550004FDD7B6800221A624BE07B681B6A002BF0
:1045600003D17B681C221A6244E07B681B6A5A1ED6
:104570007B681A623EE07B681B6A092B06DC7B685D
:104580001B6A03F114027B681A6233E07B681B6AC2
:10459000A3F10A027B681A622CE07B681B6A132B6A
:1045A00006DC7B681B6A03F10A027B681A6221E061
:1045B0007B681B6AA3F114027B681A621AE07B68AD
:1045C0001B6A204A52F82330BB607A69BB681340EB
:1045D000002B05D0BB68DB437A6913407B6103E0A5
:1045E0007A69BB6813437B617969F868FDF7FCF968
:1045F00000E000BF7B681B6A1C2B06DD7B681B6824
:104600001C211846FFF798FD07E07B681A687B6855
:104610001B6A19461046FFF78FFD0123FB7400BF8C
:10462000FB7C002B09D07B6800225A63796978688B
:10463000FFF748FE7B682F225A6300BF1837BD463C
:1046400080BD00BF48BA020880B586B000AF786070
:1046500039607B68DA6C7B68143253F822307B61F6
:104660007869FDF7B5F938617B685B6BFB607B6847
:1046700000225A6339697868FFF724FE7B68FA687C
:104680005A637B681B68DBB21846FFF7E9FA7B6860
:10469000012283F8242000BF1837BD4680BD0000EA
:1046A00080B586B000AF786039607B68DA6C7B6873
:1046B000143253F822303B613869FDF789F978618B
:1046C0003B688E2B12D1304B9B88FB607A69FB686C
:1046D0001340002B05D0FB68DB437A6913407B61F4
:1046E00037E07A69FB6813437B6132E03B688A2BD1
:1046F00006D1254BDB881A467B6913437B6128E092
:104700003B68A02B07D1204BDB88DB431A467B6933
:1047100013407B611DE03B68D42B01D130233B600B
:104720003B68303B184A32F81330FB607A69FB680B
:104730001340002B05D0FB68DB437A6913407B6193
:1047400003E07A69FB6813437B6179693869FDF797
:104750004BF97B685B6BBB607B6800225A637969AD
:10476000786802F017F97B68BA685A637B681B683F
:10477000DBB21846FFF792FAC8217868FCF78EFD85
:1047800000BF1837BD4680BD28BA020880B582B088
:1047900000AF786039603B68C02B07D03B68C12B05
:1047A00004D0044A3968786802F06FFA00BF08370D
:1047B000BD4680BDA8B3020880B588B000AF786060
:1047C00039607B68DA6C7B68143253F82230FB6105
:1047D000F869FDF791F90346BB61BB69002B17D05F
:1047E0007B689B79002B13D107F10803BA690A494A
:1047F000184621F003FC7B681B68D8B207F1080358
:1048000001220921FFF7DCF8C8217868FCF746FD92
:1048100000BF2037BD4680BDE469020880B582B084
:1048200000AF786039607B68DB6C19467868FCF70C
:10483000E5FF01220121786802F01AF900BF08376C
:10484000BD4680BD80B582B000AF786039603B68FE
:10485000C02B0FD17B681B68D8B20C4B0122002102
:10486000FFF7AEF87B680C225A6364217868FCF786
:1048700015FD07E03B68C12B04D0054A396878680C
:1048800002F003FA00BF0837BD4680BDEC6902089C
:1048900098B4020880B582B000AF786039607B6858
:1048A00000225A6301220021786802F0E1F8002119
:1048B000786802F0D5F900BF0837BD4680BD00001A
:1048C00080B584B000AF786039603B68C02B1CD1E4
:1048D0007B68DA6C7B68143253F82230FB60FB682B
:1048E000002B07D0F868FDF7FAF803461A461D4B6F
:1048F0001A6002E01B4B00221A601B49786800F026
:10490000D1FE7B680D225A6327E03B68C12B24D07F
:10491000164A3968786802F0B8F90346002B1CD1B2
:104920007B689B691A687B68DB6919460B469B00AC
:104930000B449B001344DB68002B0ED07B689B6903
:104940001A687B68DB6919460B469B000B449B0089
:104950001344DB6839687868984700BF1037BD4654
:1049600080BD00BF40300020A8B50208B0B40208E6
:1049700080B584B000AF786039607B68DB6AFB602B
:10498000FB68012B04D10E49786800F08BFE13E020
:10499000FB68022B04D10A49786800F083FE0BE023
:1049A000FB68032B04D10749786800F07BFE03E025
:1049B0003968786800F008F800BF1037BD4680BD40
:1049C0005CB5020810B5020880B582B000AF78600F
:1049D0003960786800F0CFFE7B6800225A630122BC
:1049E0000121786802F044F80021786802F038F973
:1049F00000BF0837BD4680BD80B582B000AF78608B
:104A000039603B68302B0FDD3B68392B0CDC3B6891
:104A1000A3F130027B68DA627B6881225A618122CD
:104A200079680120FDF7BEF800BF0837BD4680BD9C
:104A300080B483B000AF7860396000BF0C37BD46EA
:104A40005DF8047B7047000080B582B000AF7860ED
:104A500039603B68C02B0FD11D4B00221A601D49E5
:104A6000786800F01FFE7B680C225A634FF4FA71DD
:104A70007868FCF713FC27E03B68C12B24D0164A6A
:104A80003968786802F001F90346002B1CD17B6875
:104A90009B691A687B68DB6919460B469B000B44CF
:104AA0009B001344DB68002B0ED07B689B691A685F
:104AB0007B68DB6919460B469B000B449B00134443
:104AC000DB6839687868984700BF0837BD4680BD05
:104AD000543000201CB60208B8B5020880B582B078
:104AE00000AF786039600D4B1B68002B02D0012BA2
:104AF00008D00FE0786800F03EFE0521786802F0EB
:104B0000AFF807E0786800F036FE0621786802F01A
:104B1000A7F800BF00BF0837BD4680BD5430002055
:104B200080B582B000AF78603960786800F023FE0D
:104B30007B6800225A6301220021786801F098FF07
:104B40000021786802F08CF800BF0837BD4680BDB0
:104B500080B582B000AF786039603B68C02B0AD165
:104B60001B49786800F09EFD7B680D225A63194B43
:104B700000221A7027E03B68C12B24D0164A3968FE
:104B8000786802F082F80346002B1CD17B689B6991
:104B90001A687B68DB6919460B469B000B449B0037
:104BA0001344DB68002B0ED07B689B691A687B6816
:104BB000DB6919460B469B000B449B001344DB68E2
:104BC00039687868984700BF0837BD4680BD00BF88
:104BD00040B70208583000202CB6020880B582B0D9
:104BE00000AF786039607B6800225A63012201219E
:104BF000786801F03DFF0021786802F031F800BFCD
:104C00000837BD4680BD000080B58CB000AF78602D
:104C10003960002387F82B307B689B691A687B68B2
:104C2000DB6919460B469B000B449B0013445B68F1
:104C30007B627B6826333B623B68D12B03D03B68A9
:104C4000D22B1ED024E07B6800221A627B680122EE
:104C500083F8252000224749386A21F0CFF97B6884
:104C60001B68DBB201220F211846FEF7D3FF7B68D9
:104C70001B68DBB21846FEF7F3FF012387F82B30E1
:104C800051E07B681B68DBB21846FFF707F84AE083
:104C90003B68DBB20133384A13441B7803F004034A
:104CA000002B3FD0786AFFF777F8F861386AFBF796
:104CB000F9FA0246FB699A4204D07B6893F82530E2
:104CC000012B09D17B68002283F825207B68002214
:104CD0001A623B6A00221A70386AFBF7E3FA03464D
:104CE0000133FB620BE0FB6A013B3A6A1A44FB6A40
:104CF000396A0B4412781A70FB6A013BFB627B68CD
:104D00001B6AFA6A9A42EED17B681B6A591C7A6860
:104D100011621A463B6A13443A68D2B21A700123F0
:104D200087F82B3000BF97F82B30002B1DD0386A46
:104D300020F046FB024607F10803796A184621F085
:104D40005DF907F108031846FBF7ACFA0346FB616F
:104D50007B681B68D8B2FB69DBB2C3F11003D9B220
:104D600007F108030122FEF72BFE00BF3037BD46D6
:104D700080BD00BF706A0208D0C3020880B582B04F
:104D800000AF7860396039687868FFF73DFF00BF91
:104D90000837BD4680BD80B586B000AF7860396009
:104DA0000023FB757B689B691A687B68DB69194681
:104DB0000B469B000B449B0013445B683B613B68C4
:104DC000D22B25D03B68D22B34DC3B68312B22D050
:104DD0003B68D12B2ED17B6800221A6304E07B68EC
:104DE0001B6B5A1C7B681A637B681B6B9B003A69C0
:104DF00013441B68002BF2D17B680022DA627B68C7
:104E00001B68DBB21846FEF749FF0123FB7511E072
:104E10000123FB750EE07B68DB6A01337A68126B55
:104E200093FBF2F101FB02F29A1A7B68DA6201232A
:104E3000FB7500BFFB7D002B1BD07B68DB6A9B00F2
:104E40003A6913441B681846FBF72CFA0346FB60CB
:104E50007B681B68D8B2FB68DBB2C3F11003D9B220
:104E60007B68DB6A9B003A6913441B680122FEF7EA
:104E7000A7FD00BF1837BD4680BD80B483B000AF2A
:104E80007860396000BF0C37BD465DF8047B704721
:104E900080B483B000AF7860396000BF0C37BD4686
:104EA0005DF8047B704780B483B000AF78603960F0
:104EB00000BF0C37BD465DF8047B704780B582B0FB
:104EC00000AF786039603B68C02B18D17B685B6CA1
:104ED0001A46214B1A60204B1B68002B02D11E4B37
:104EE00001221A601D49786800F0DCFB7B680C2207
:104EF0005A6341F270717868FCF7D0F927E03B689B
:104F0000C12B24D0164A3968786801F0BEFE0346EA
:104F1000002B1CD17B689B691A687B68DB6919468A
:104F20000B469B000B449B001344DB68002B0ED008
:104F30007B689B691A687B68DB6919460B469B0096
:104F40000B449B001344DB6839687868984700BFBE
:104F50000837BD4680BD00BFF4000020CCB7020872
:104F600050B7020880B584B000AF786039607868C7
:104F700000F001FC154B1B681A467B685A64134B02
:104F80001B681846FCF732F8F860FB684FF6FF72B2
:104F9000934205D10D4B1B681846FBF7FBFFF860E9
:104FA000F868FCF747F803461A46094B1A600949A6
:104FB000786800F077FB7B685B6B43F001027B68ED
:104FC0005A6300BF1037BD4680BD00BFF40000200B
:104FD000F800002004B8020880B584B000AF786003
:104FE0003960104B1B681846FCF700F8F8600E4B50
:104FF0001B68DBB21946F868FCF732F8786800F0F5
:10500000BAFB7B6800225A6301220121786801F013
:105010002FFD0021786801F023FE00BF1037BD4648
:1050200080BD00BFF4000020F800002080B582B0F1
:1050300000AF78603960786800F09DFB7B680022E3
:105040005A6301220121786801F012FD002178687D
:1050500001F006FE00BF0837BD4680BD80B582B0B6
:1050600000AF786039607B689B690E4A93420FD12C
:10507000786800F080FB7B6800225A6301220121DE
:10508000786801F0F5FC0021786801F0E9FD04E0A2
:10509000D52279680120FCF785FD00BF0837BD46A1
:1050A00080BD00BFCCB7020880B586B000AF786085
:1050B00039600023FB757B689B691A687B68DB6934
:1050C00019460B469B000B449B0013449B683B61B5
:1050D0007B689B691A687B68DB6919460B469B00F5
:1050E0000B449B0013445B68FB603B68D52B7ED070
:1050F0003B68D52B00F398803B68D22B38D03B68B7
:10510000D22B00F391803B68D12B17D03B68D12B79
:1051100000F38A803B688F2B69D03B688F2B00F3AC
:1051200083803B68322B4CD03B68322B7CDC3B6865
:10513000302B25D03B68312B2BD075E03B69002B01
:1051400003D17B680022DA6209E03B691B68002B0F
:1051500003F00103B8BF5B421A467B68DA627B68E2
:105160001B68DBB21846FEF799FD0123FB755BE077
:105170003B69002B57D07B68DA6A3B691A6052E0C2
:105180007B68D4225A61D42279680120FCF70AFD99
:105190004AE07B680022DA622D4B1B681846FBF759
:1051A00025FFB8602A4B1B6800211846FBF758FF03
:1051B0007B6881225A61812279680120FCF7F2FC28
:1051C00032E07B680122DA62214B1B681846FBF74C
:1051D0000DFFB8600121B868FBF742FF7B688122B0
:1051E0005A61812279680120FCF7DCFC1CE0184B35
:1051F0001B681846FBF7FAFEB8607B68DB6A002B79
:1052000007D07B680022DA620021B868FBF728FF2C
:1052100006E07B680122DA620121B868FBF720FF13
:105220000123FB7500E000BFFB7D002B0CD07B68E9
:105230001B68D8B27B68DB6A9B00FA6813441B6862
:1052400001220021FEF7BCFB00BF1837BD4680BD20
:10525000F400002080B584B000AF786039603B680E
:10526000C02B21D17B68DA6C7B68143253F8223072
:10527000FB60FB68002B07D0F868FCF730FC0346A6
:105280001A461F4B1A6002E01D4B00221A601D498E
:10529000786800F007FA7B680C225A6341F270715B
:1052A0007868FBF7FBFF27E03B68C12B24D0164A48
:1052B0003968786801F0E9FC0346002B1CD17B6853
:1052C0009B691A687B68DB6919460B469B000B4497
:1052D0009B001344DB68002B0ED07B689B691A6827
:1052E0007B68DB6919460B469B000B449B0013440B
:1052F000DB6839687868984700BF1037BD4680BDC5
:105300003C32002090B8020814B8020880B586B07C
:1053100000AF786039603868FCF746FA78617B69DD
:10532000002B09D13868FCF7E3F978617B69002B21
:1053300002D1FCF765FE786100233B6147E04D49EF
:105340003A6913461B019B1ADB000B441A687B6801
:105350001B689A4238D00023FB6032E045493A6925
:1053600013461B019B1A5B00FA681344143351F86F
:1053700023307A699A4221D13A6913461B019B1A5C
:10538000DB003C4A1344FA6811461846FCF736FA2B
:1053900038493A6913461B019B1ADB000B444C3316
:1053A00008221A603A6913461B019B1ADB00314A36
:1053B000134401220121184601F05AFBFB68013316
:1053C000FB60FB68072BC9DD3B6901333B613B692F
:1053D000032BB4DD00233B611BE07B683A69143288
:1053E00053F822307A699A4210D13A697B68DA64BC
:1053F0007B6800225A6301220121786801F038FBA2
:105400000021786801F02CFC7B692EE03B690133B8
:105410003B613B69072BE0DD00233B6113E07B68C8
:105420003A69143253F82230002B09D17B683A696B
:105430001432796943F822103A697B68DA6405E02E
:105440003B6901333B613B69072BE8DD3B69082B76
:105450000AD17B68DA6C7B68D96E7B68143243F8BA
:1054600022107B680722DA647B6918461837BD462C
:1054700080BD00BF5C30002080B584B000AF786094
:105480003960786800F077F91B4B1B68002B03D15B
:10549000194B4FF6FE721A60174B1B681946786855
:1054A000FFF734FFF860F968786801F07DF87B68F1
:1054B00000225A6301220121786801F0D9FAF868C4
:1054C000FCF728FA0346BB607B681B68D8B2BB6850
:1054D00016330A4A52F8233001220821FEF770FAE7
:1054E000C8217868FBF7DAFE0021786801F0B8FB84
:1054F00000BF1037BD4680BD3C320020FC000020BC
:1055000080B582B000AF78603960786800F033F918
:105510007B6800225A6301220021786801F0A8FA12
:105520000021786801F09CFB00BF0837BD4680BDB4
:1055300080B582B000AF786039603B68C02B0BD17A
:105540007B681B68D8B20A4B00220021FEF738FAAC
:105550007B680F225A6307E03B68C12B04D0054AE1
:105560003968786801F091FB00BF0837BD4680BDFF
:10557000A46A0208A0B8020880B582B000AF7860C3
:1055800039603B68C02B06D17B680F225A6378686C
:1055900000F010F807E03B68C12B04D0044A3968DA
:1055A000786801F072FB00BF0837BD4680BD00BFC0
:1055B000ACB8020880B582B000AF78607B681B6829
:1055C000D8B2084B00220021FEF7FAF97B681B686D
:1055D000D8B2044B01220021FEF7F2F900BF0837D0
:1055E000BD4680BDB86A020880B582B000AF786061
:1055F00039607868FFF7DEFF00BF0837BD4680BD21
:1056000080B582B000AF786039607B6800225A6351
:1056100001220021786801F02BFA0021786801F05E
:105620001FFB00BF0837BD4680BD000080B582B0BB
:1056300000AF786039607B681B68D8B23B681A6835
:105640007B68DB6919460B469B000B449B001344A7
:105650001B68054A52F8233001220021FEF7B0F9F9
:1056600000BF0837BD4680BDFC00002080B582B079
:1056700000AF7860396039687868FFF7D7FF3B681A
:105680001A687B68DB6919460B469B000B449B003C
:105690001344DB68D1217868984700BF0837BD46BE
:1056A00080BD000080B588B000AF786039607B684D
:1056B0000022DA617B683A689A613B689B68002B3C
:1056C0003CD03B685B68002B20D03B685B681B6864
:1056D000FB613B689B681D4A52F8231007F10803E1
:1056E000FA69184620F08AFC7B681B68D8B207F17B
:1056F000080300220021FEF763F97B68383307F1C5
:1057000008021146184620F0ACFE17E07B681B68C3
:10571000D8B23B689B680D4A52F823300022002122
:10572000FEF74EF97B6803F138023B689B68074936
:1057300051F823301946104620F093FE39687868F6
:10574000FFF794FF00BF2037BD4680BDFC0000205E
:1057500080B582B000AF78607B68DB695A1C7B68DB
:10576000DA617B689B6919467868FFF77FFF00BFA5
:105770000837BD4680BD80B582B000AF78607B68D9
:105780009B69002B0ED07B689B691A687B68DB697C
:1057900019460B469B000B449B001344DB68D22147
:1057A000786898477B6800229A617B681B68DBB247
:1057B0001846FEF773FA00BF0837BD4680BD80B5B6
:1057C00084B000AF786039607B689B69FB607B6860
:1057D0009B691A687B68DB6919460B469B000B4482
:1057E0009B001344DB68002B0ED07B689B691A6812
:1057F0007B68DB6919460B469B000B449B001344F6
:10580000DB68D221786898477B689B691A687B6857
:10581000DB6919460B469B000B449B0013441B6934
:10582000002B0ED07B689B691A687B68DB69194680
:105830000B469B000B449B0013441B693968786836
:1058400098477B689B69FA689A421CD17B689B6980
:1058500019687B68DB695A1C13469B0013449B0044
:105860000B441B68002B0BD17B689B69DB68002B0A
:1058700009D07B689B69DB6800217868984702E063
:105880007868FFF765FF00BF1037BD4680BD000098
:1058900080B582B000AF786039603B6803F4007374
:1058A000002B07D03B68DAB27B68DA60786800F0DA
:1058B00041FA04E0044A3968786801F0E6F900BF6B
:1058C0000837BD4680BD00BFD0B8020880B588B09B
:1058D00000AF786039607B68DA6C7B68143253F80B
:1058E0002230FB61FB69002B00F0A4807B685B6BBE
:1058F00003F01003002B40F09D80FB6993F85530B6
:10590000022B00F09680022B00F39480002B02D033
:10591000012B69D08EE0F869FBF7AFFF0346232B1C
:105920001DD8F869FCF71BF80346FB76FB7E002BBD
:1059300008D10121F869FCF71FF80121786800F00F
:10594000CBFE07E00021F869FCF716F80021786823
:1059500000F0C2FE3968786800F082FD6AE0F869FC
:10596000FBF7D8FF0346052B30D801A252F823F0ED
:1059700099590008B9590008A9590008B9590008EF
:1059800089590008B959000807F1080302222B4978
:10599000184620F033FB19E007F1080304222749D9
:1059A000184620F02BFB11E007F1080312222349CF
:1059B000184620F023FB09E00E237B6107F1080362
:1059C0007A691E49184620F019FB00BF7B681B68E6
:1059D000D8B207F1080301220821FDF7F1FF3221B7
:1059E0007868FBF75BFC25E0F869FBF746FF0346A8
:1059F000002B04D03968786800F032FD1AE0F869AD
:105A0000FBF7ADFF0346FB76FB7E002B08D101219F
:105A1000F869FBF7B1FF0121786800F05DFE09E04D
:105A20000021F869FBF7A8FF0021786800F054FE18
:105A300000E000BF00BF2037BD4680BDCC6A020831
:105A400080B483B000AF786039607B681A683B68C7
:105A50001A447B681A607B681B68FC2B02D97B6840
:105A6000FC221A6000BF0C37BD465DF8047B70470E
:105A700080B483B000AF786039607B681A683B6897
:105A8000D21A7B681A607B681B68FC2B02D97B6882
:105A900000221A6000BF0C37BD465DF8047B7047DA
:105AA00080B586B000AF786039607B68DA6C7B685F
:105AB000143253F822303B613B69002B00F03581F2
:105AC0007B685B6B03F01003002B40F02E817B683A
:105AD0005B6B03F02003002B40F027813869FBF754
